:02000000C32813
:100008000528F000030EF100831203130A08EC0020
:100018008A010B1916206C088A00710E8300F00EF5
:10002800700E090006308100A30A22140B11080083
:100038000030F2003C30F3007E30F4007E30F500F2
:100048007E30F6007E30F7007E30F8007E30F90012
:100058007E30FA007E30FB003C30FC000030FD00B2
:10006800031383123C30E0007E30E1003C30E200B4
:10007800FF30E300FF30E400FF30E500FF30E6002A
:10008800FF30E700FF30E8003C30E9007E30EA004E
:100098003C30EB000800031783128D00031783160A
:1000A8008C130C14031783120C0803138312080013
:1000B800031383123608031783128D000313831268
:1000C8003508031783128C00031783168C130C153D
:1000D8008B1355308D00AA308D008C148B178C181B
:1000E80073280C1103138312080002304F20B50047
:1000F800A5303502031D8B2800304F2003138312CF
:10010800DC0001304F2003138312DD0008000313C5
:100118008312DC01DD010800031383125C08B500BB
:100128000030B6005C20031383125D08B50001306F
:10013800B6005C20A530B5000230B6005C2008008F
:1001480003138312DE01031383122A080313831295
:100158005D02031CBA28031D080003138312290833
:10016800031383125C02031CBA28080003138312CA
:100178002908DC002A08DD000130DE00080003132E
:100188008312203084008001840A6C300402031D2D
:10019800C7281E210E218B171C20792054210313F8
:1001A80083120030A000D2222623E52E03138312E7
:1001B8000130A0006430A7006430DB000A30BF00C3
:1001C8000830AB000130A1000130A5000130A600C5
:1001D800A901AA01AC01A401D6010530BE00FF3077
:1001E800D000FF30D200FF30D400FF30D700D1015B
:1001F800D301D5010130DA00DE01C001AC30BD0009
:10020800E130BC00B021B8232424C3240313831293
:100218000715080003138316C730810003138312E0
:1002280081010630810003138312A301A401A201F6
:100238008B1608000313831606309F0003138316DA
:1002480007308500031383160030860003138316D6
:10025800FB308700031383160030880003138312D2
:1002680085018601870188018616031383120730EA
:10027800BA000730B900BB01080003138312050850
:100288000739073A03138312B5003A083506B60052
:1002980035083605BB003508B9003508BA0008002E
:1002A80086120130F92186160130F92106148610CC
:1002B8003F307221C0307221B83072214030722133
:1002C800061086143F307221C0307221B830722176
:1002D80040307221B02106108610080003138312E3
:1002E800B000061186110313831230088800061621
:1002F800000000000000061200000800031383122B
:10030800B0000615861103138312300888000616FC
:10031800000000000000061200000800031383120A
:10032800B201031383123208B838722140307221A7
:1003380003138312B1010030822103138312B10A1F
:1003480040303102031D9F2903138312B20A08307B
:100358003202031D95290800061486109221061002
:100368008614922106108610080003138312403069
:100378002D02031CC629061086140313831240306D
:100388002D02CB2906148610031383122D0840383A
:100398007221031383122E08B838722103138312B3
:1003A8002F08822106108610080003138312AD015E
:1003B80003138312FF30AF00B92103138312AD0A70
:1003C80080302D02031DDC29080003138312AD01C0
:1003D800031383120030AF00B92103138312AD0A4F
:1003E80080302D02031DEC29080003138312B50089
:1003F80003138312230803138312B507031383120D
:100408002308031383123502031D022A2210080051
:10041800B70008308A00370800208A01080035082C
:10042800B6000310B60D0310B60D3508B607053033
:10043800B80036080C22AF00B921AD0AB60AB803D5
:10044800031D1D2A0030AF00B921AD0A0800B5010F
:10045800B60103138312290803138312B70064300B
:100468003702031C3A2AB700B50A332A0A30370282
:10047800031C412AB700B60A3A2A0800B501B6019A
:10048800031383125C0803138312B700332A031380
:1004980083123608D9003708DB0035081C3EB50042
:1004A80013220313831259081C3EB50013220313A9
:1004B80083125B081C3EB500132208000730AE000B
:1004C8001C30AD001130B50013221330B5001322D3
:1004D8000630B50013221430B50013221430B500CD
:1004E80013220030B50013221430B5001322063051
:1004F800B50013220D30B50013220630B5001322C3
:100508000430B50013221530B50013220800063058
:10051800AE002E30AD000130B50013220800AE0148
:10052800AD010930B50013220A30B5001322263078
:10053800B500132242224B220130AE00AD01083033
:10054800AF00B921AD0A80302D02031DA32A08008F
:100558000430AE001F30AD000F30B5001322063056
:10056800B50013221830B50013220030B50013224D
:100578001330B50013220630B50013220430B5003D
:1005880013221030B50013221330B50013220530A2
:10059800B50013222830B500132208000230AE003F
:1005A8002230AD001330B50013220230B5001322FB
:1005B8000430B50013220A30B50013220F30B500FD
:1005C80013220830B50013220030B500132204307E
:1005D800B50013220230B50013221330B5001322E0
:1005E8000430AE002830AD000330B50013221A30B5
:1005F800B50013220030B50013220230B5001322D3
:100608001A30B50013221630B50013221430B50085
:1006180013220930B50013220530AE003130AD0089
:100628001A30B50013220230B50013220B30B50082
:1006380013220230B50013221530B50013224E30B4
:10064800F9210800B02193220230AE002230AD001B
:100658001330B50013220230B50013220430B50060
:1006680013220A30B50013220F30B50013220830C8
:10067800B50013220030B50013220430B500132250
:100688000230B50013221330B50013220330AE0038
:100698003A30AD00723084009E240430AE003A3007
:1006A800AD00603084009E248B220630AE003A30C4
:1006B800AD001130B50013220D30B5001322023001
:1006C800B50013221A30B500132262220800B021A7
:1006D80093220230AE002530AD000830B500132259
:1006E8000230B50013220E30B50013220630B500D3
:1006F80013220030B50013221030B5001322173032
:10070800B50013220630B50013221330B5001322AA
:100718000330AE002B30AD001430B5001322043086
:10072800B50013222630B50013222B224B220313C7
:100738008312DE080319A12BAC220530AE00253048
:10074800AD000330B50013220630B5001322143073
:10075800B50013221530B50013222630B500132238
:1007680042224B2262220800031383120030AE009B
:10077800031383122708B500B60103303502031CA2
:10078800CA2BB50003138312B60AC12B03138312B5
:10079800AD01031383123608B80003138312B80897
:1007A8000319E22B031383127E30AF00B921031320
:1007B8008312AD0A03138312B803D12B03138312D8
:1007C80028302D020318F12B031383124230AF0097
:1007D800B92103138312AD0AE22B031383122830C5
:1007E800AD0003138312FF30AF00B9210313831246
:1007F8003230AD00031383122108B80003138312AB
:10080800B8080319132C031383127E30AF00B921E3
:1008180003138312AD0A03138312B803022C563054
:10082800AD001430B50013220430B5001322263071
:10083800B50013222B224B2203138312DA0108007E
:10084800031383120130AE00031383122E0803131F
:1008580083122C0701390319362C03138312FF3036
:10086800AF003A2C031383120030AF000313831236
:100878002A30AD00B921031383125530AD00B921D8
:100888000313831207302E02031D592C03138312FE
:10089800AD0103138312FF30AF00B9210313831294
:1008A800AD0A80302D02031D4D2C03138312AE0AAE
:1008B80008302E02031D282C080003138312250874
:1008C800FF390319702C0130031383122502031911
:1008D800732C6630B40008001030B40008003B30B8
:1008E800B4000800031383122608FF390319852C66
:1008F80001300313831226020319882C6630B400D2
:1009080008001030B40008003B30B400080003139E
:1009180083123708FF390319982C0130370203195D
:100928009B2C6630B40008001030B40008003B303F
:10093800B4000800031383120C30B300000803133B
:100948008312AF00B921840A03138312AD0A03137B
:100958008312B303031DA22C0800031383120C3067
:10096800B300031383120030AF00B92103138312BD
:10097800AD0A03138312B303031DB52C08006124C9
:10098800031383120530AE00031383123408AD003D
:10099800723084009E24031383120630AE000313C2
:1009A80083123408AD00603084009E240313831240
:1009B8002508A60008007624031383120530AE002C
:1009C800031383123408AD00B124031383120630D5
:1009D800AE00031383123408AD00B12408008B2441
:1009E800031383123408AD00723084009E2403136D
:1009F8008312AE0A031383123408AD0060308400FA
:100A08009E2403138312AE0308008B24031383125E
:100A18003408AD00B12403138312AE0A0313831202
:100A28003408AD00B12403138312AE030800031386
:100A380083125708B7008B24031383123408AD00C0
:100A4800031383123E30AF00B92103138312AD0A9A
:100A58004130AF00B92103138312AD0A5D30AF00F6
:100A6800B92103138312AD0A4130AF00B921031332
:100A78008312AD0A3E30AF00B92108000313831278
:100A88005708B7008B24031383123408AD000313EF
:100A980083120530B300031383120030AF00B9216D
:100AA80003138312AD0A03138312B303031D4F2DDF
:100AB8000800031383123C1C672D0310BD0CBC0CEB
:100AC800D430BC0608000310BD0CBC0C08005D2522
:100AD800031383123C080339B70003303702031DA0
:100AE800080003138312B7010800031383120330AD
:100AF8005602031808006B2503138312FF305702B0
:100B0800031D972D03138312BD1D972D6B2503130A
:100B180083123708D7000130D8000313831201303D
:100B2800AE001B25080003138312FF30500203197F
:100B3800AA2D03138312FF3052020319B12D031398
:100B48008312FF3054020319B82D080003138312CF
:100B58003708D0000130D100BE2D031383123708A7
:100B6800D2000130D300BE2D031383123708D400FE
:100B78000130D50003138312D60A03138312013000
:100B8800AE00F324080003138312A90A0319AA0A62
:100B98000130DA00031383122908B50050303502FA
:100BA8000318042E323035020318F92D1930350296
:100BB8000318EE2D0A3035020318E32D080003133D
:100BC800831202302102031808000230A100063007
:100BD800AB00080003138312033021020318080036
:100BE8000330A1000530AB00080003138312043062
:100BF8002102031808000430A1000330AB000800EC
:100C08000313831205302102031808000530A100E0
:100C18000230AB00080003138312FF305702031998
:100C28000800031383125808AE00422503138312E9
:100C3800D80A05305802031D382E031383125708AB
:100C4800031383122502031D382E031383121E304B
:100C5800A70764302702031C332E6430A700FF3037
:100C6800D7000130DA000800031383120830580255
:100C78000318442E031383125808AE001B250800DE
:100C8800FF30D700080003138312FF305002031906
:100C9800752E031383125108AE00031383125008F4
:100CA800B700092503138312D10A0530510203182E
:100CB800D2260313831208305102031C6C2EFF3016
:100CC800D00003138312D608031DD603C725752E3B
:100CD800031383125108AE00031383125008B700A0
:100CE800F32403138312FF3052020319A32E0313B4
:100CF80083125308AE00031383125208B700092564
:100D080003138312D30A053053020318D2260313A0
:100D1800831208305302031C9A2EFF30D2000313AB
:100D28008312D608031DD603C725A32E03138312E7
:100D38005308AE00031383125208B700F3240313B9
:100D48008312FF3054020319D12E0313831255085E
:100D5800AE00031383125408B70009250313831246
:100D6800D50A053055020318D2260313831208301A
:100D78005502031CC82EFF30D40003138312D60873
:100D8800031DD603C725D12E031383125508AE00C1
:100D9800031383125408B700F324080003138312C3
:100DA8003708031383122502031D08000313831257
:100DB800A2140800031383120330A000A4206B239D
:100DC800080003138312221CE52E2210412103136D
:100DD800831201302002031D542F03138312A40A27
:100DE800031383122B08031383122402031D4F2FAE
:100DF80003138312A40103138312AC0A08302C02D4
:100E0800031D092F03138312AC0103138312BF03BD
:100E1800031D182F0A30BF0003138312A7080319F4
:100E2800492FA7030130DA0003138312BE03031D01
:100E3800402F031383122108B5000530350203192A
:100E48003D2F0430350203193A2F033035020319B8
:100E5800372F023035020319342F0530BE003F2FDB
:100E68000430BE003F2F0330BE003F2F0330BE00CA
:100E78003F2F0230BE0079250F2647260313831221
:100E8800A218492F2424C3244F2FA210031383121E
:100E9800DA01DE26E52E03138312DA08031DB823D0
:100EA80003138312013020020319692F0230200234
:100EB8000319912F0330200203199A2F00302002C2
:100EC8000319BB2F0030A000E52E031383123B1D2E
:100ED800722F031383120230A000E52E031383122E
:100EE8003B1C812F03138312A5080319E52EDF2469
:100EF80003138312A503C324E52E03138312BB1C1B
:100F0800E52E03138312023025020319E52EDF2490
:100F180003138312A50AC324E52E031383123B1D72
:100F2800E52E031383120130A000E52E031383126C
:100F3800DE080319B12F03138312DF0A27305F027B
:100F4800031DB12FDF0103138312C00A401CAE2F0B
:100F5800AC22B12F0430AE00E92103138312391DEE
:100F6800E52E031383120030A0002623E52E031379
:100F78008312DF0A0C305F02031DD12FDF01031338
:100F88008312C00A401CCA2F8B22D12F0630AE0014
:100F98002E30AD000030B5001322031383123B1D21
:060FA800E52EDA20E52E23
:101000008207003400340034003400344134223488
:101010001434083400347E340934093409347E34FD
:101020007F3449344934493436343E3441344134D0
:10103000413422347F344134413422341C347F34EF
:1010400049344934493441347F3409340934013452
:1010500001343E344134493449343A347F3408341D
:10106000083408347F34413441347F3441344134CE
:1010700020344034403440343F347F340834143416
:10108000223441347F3440344034403440347F345F
:1010900002340C3402347F347F3402340434083494
:1010A0007F343E344134413441343E347F3409345A
:1010B0000934093406343E344134513421345E3429
:1010C0007F34093419342934463446344934493498
:1010D00049343134013401347F34013401343F3434
:1010E0004034403440343F341F34203440342034C2
:1010F0001F347F342034183420347F344134223478
:101100001C3422344134033404347834043403343A
:10111000613451344934453443343E3451344934D4
:1011200045343E34003442347F3440340034423459
:1011300061345134493446342134413449344934DA
:1011400036341834143412347F3410342734453490
:101150004534453439343C344A34493449343134E3
:101160000134713409340534033436344934493494
:101170004934363406344934493429341E34003471
:101180003634363400340034143414341434143403
:10119000143400345F34003400340034083408342C
:0611A00008340834083495
:02400E00723FFF
:00000001FF
